:02000000682B6B
:06000600000000000800EC
:10000C000F3083120313FC004730FD00FD0B0C284E
:0A001C00FC0B0C2800000000080097
:0E002600213083120313FD00FD0B1728080084
:1000340083120313C81B2028881121288815481B04
:100044002528081126280815C81A2A2888102B28BC
:100054008814481A2F280810302808144018342807
:10006400081635280812881603208812C8193C2857
:1000740088113D2888154819412808114228081577
:10008400C818462888104728881448184B28081090
:100094004C280814401850280816512808128816AD
:1000A40003208812401C58280620592813200800D1
:0E00B400831203133B088A003A0882000800FA
:1000C20083120313FB01FA01F901F801A001730D78
:1000D200F80D7408F8027508031C750FF90276080A
:1000E200031C760FFA027708031C770FFB0200014C
:1000F200031C0130A002F30D0730FC00730DF80D54
:10010200F90DFA0DFB0DA00D7408731C9A28F80264
:100112007508031C750FF9027608031C760FFA02A4
:100122007708031C770FFB020001031C0130A002B9
:10013200AB28F80775080318750FF9077608031836
:10014200760FFA0777080318770FFB0700010318E9
:100152000130A007F30DFC0B7F28720DF80DF90D8D
:10016200FA0DFB0DA00D7408731CC928F80275085E
:10017200031C750FF9027608031C760FFA02770842
:10018200031C770FFB020001031C0130A002DA28D6
:10019200F80775080318750FF90776080318760F24
:1001A200FA0777080318770FFB07000103180130DD
:1001B200A007F20D0730FC00720DF80DF90DFA0DD3
:1001C200FB0DA00D7408721CF828F8027508031CB8
:1001D200750FF9027608031C760FFA027708031CE2
:1001E200770FFB020001031C0130A0020929F80766
:1001F20075080318750FF90776080318760FFA07C2
:1002020077080318770FFB07000103180130A007D6
:10021200F20DFC0BDD28710DF80DF90DFA0DFB0D39
:10022200A00D7408721C2729F8027508031C750FAB
:10023200F9027608031C760FFA027708031C770F7F
:10024200FB020001031C0130A0023829F8077508DF
:100252000318750FF90776080318760FFA0777085F
:100262000318770FFB07000103180130A007F10DF7
:100272000730FC00710DF80DF90DFA0DFB0DA00D04
:100282007408711C5629F8027508031C750FF902CF
:100292007608031C760FFA027708031C770FFB021D
:1002A2000001031C0130A0026729F8077508031832
:1002B200750FF90776080318760FFA0777080318FF
:1002C200770FFB07000103180130A007F10DFC0BAB
:1002D2003B29700DF80DF90DFA0DFB0DA00D7408F8
:1002E200711C8529F8027508031C750FF90276083E
:1002F200031C760FFA027708031C770FFB0200013A
:10030200031C0130A0029629F80775080318750F1F
:10031200F90776080318760FFA0777080318770F9C
:10032200FB07000103180130A007F00D0730FC00A5
:10033200700DF80DF90DFA0DFB0DA00D7408701C6F
:10034200B429F8027508031C750FF9027608031C1C
:10035200760FFA027708031C770FFB020001031CD9
:100362000130A002C529F80775080318750FF907AF
:1003720076080318760FFA0777080318770FFB073A
:10038200000103180130A007F00DFC0B9929701829
:10039200D8297408F80775080318750FF907760845
:1003A2000318760FFA0777080318770FFB07080080
:1003B20083120313F8010830FC00700DF80D740865
:1003C200F8020318E629F8070310F00DFC0BDE29EA
:0203D200080021
:1003D400831203132230FC00F801F901FA01FB0136
:1003E400FC030319202A0310FB0CFA0CF90CF80C7B
:1003F400F30CF20CF10CF00C031CF229FC030319AE
:10040400122A7408F80775080318750FF907760897
:100414000318760FFA0777080318770FFB07F629F6
:100424007408F80775080318750FF9077608031898
:0E043400760FFA0777080318770FFB0708000A
:100442008312031340104708C8001A204014080002
:100452003B2A803083120313C3004E2AC030C300EC
:100462004E2A9430C3004E2AD430C3004E2A803024
:10047200C3004E2A831203134308013A03192A2A9E
:100482004308023A03192F2A4308033A0319322A6E
:100492004308043A0319352A382A4403F000430872
:1004A200F0077008C3007008C8001A204010C60187
:1004B20046084507840000080319672A46084507CD
:1004C20084000008C7002122C60A592A40140800E5
:1004D2008316031388120812081088100811881155
:1004E2008312881208128811081188100810062039
:1004F2000620062088140814881603208812062075
:1005020088160320881206208816032088120620E7
:1005120008108816032088120620881603208812E5
:10052200881088158816032088120620881108145E
:1005320088160320881208108816032088120620C5
:1005420088160320881208148816032088120620B1
:1005520008108816032088128815081588140814B4
:0C056200881603208812062040140800B0
:10056E0083120313C501033045020318C52A45083B
:10057E004407840020308000C50ABA2A4508440783
:10058E0084008001C50345084407C6000A30F40004
:10059E004308F000D9217808F0003030F007460803
:1005AE008400700880000A30F4004308F000D9215E
:1005BE007008C3007008003A031DE62AE82AC50336
:0405CE00CA2A08002D
:1005D2005A208A110A128000840ABA0A0319BB0A35
:0805E200F003031DE92A0800E3
:1005EA0083120313BC01BD01BE01BF01C101C201D7
:1005FA008E018F0106170630FD00FD0B022B00004D
:10060A00BF308605861B0A2B072B19309000861FE0
:10061A000F2B0C2B183090000F08F100F0010E0878
:10062A007004F8007108F9000030F9044208F70074
:10063A004108F600F401F5017808F0007908F100A4
:10064A00F201F3017408F00775080318750FF10732
:10065A0076080318760FF20777080318770FF3075F
:10066A007008BC007108BD007208BE007308BF00A4
:10067A007008B4007108B5007208B6007308B700B4
:10068A002230F400F501F601F701EA21E830F4001E
:10069A000330F500F601F70161207008F4007108D3
:1006AA00F5007208F6007308F700F70CF60CF50C63
:1006BA00F40CF7137408B8007508B9007408F00050
:0606CA007508F1000800B4
:1006D000453083120313A1004D30A2005030A30017
:1006E0005430A4005930A500A6014430A700693059
:1006F000A8007330A9007430AA006130AB006E30DE
:10070000AC006330AD006530AE003D30AF0020304E
:10071000B000B101883083168600870188018312FA
:100720008601870188018F018E01F5227008B800CB
:100730007108B9000B30FB002630FC005D30FD0075
:10074000FD0BA02BFC0BA02BFB0BA02B0000000033
:10075000692200303902031DAF2B1E303802031806
:10076000ED2B0130C8001A200C30C8001A200130CF
:10077000C3000130C4002730C50029220B30FB0024
:100780002630FC005D30FD00FD0BC42BFC0BC42BA0
:10079000FB0BC42B000000003808C3003230C4003B
:1007A000B7220130C3000D30C4003230C500292209
:1007B0000C30C8001A200B30FB002630FC005D30E6
:1007C000FD00FD0BE12BFC0BE12BFB0BE12B0000F3
:1007D00000000130C8001A20082C0130C8001A207F
:1007E0000130C3000130C4002130C50029220C3083
:1007F000C8001A200B30FB002630FC005D30FD00E5
:10080000FD0B002CFC0B002CFB0B002C000000004F
:04081000952B092CEF
:02400E004A2F37
:00000001FF
